{
  "_format": "hh-sol-artifact-1",
  "contractName": "Lofi",
  "sourceName": "contracts/Lofi.sol",
  "abi": [
    {
      "inputs": [],
      "stateMutability": "nonpayable",
      "type": "constructor"
    },
    {
      "anonymous": false,
      "inputs": [
        {
          "indexed": true,
          "internalType": "address",
          "name": "from",
          "type": "address"
        },
        {
          "indexed": false,
          "internalType": "uint256",
          "name": "timestamp",
          "type": "uint256"
        },
        {
          "indexed": false,
          "internalType": "string",
          "name": "message",
          "type": "string"
        }
      ],
      "name": "NewLofi",
      "type": "event"
    },
    {
      "inputs": [],
      "name": "getAllLofis",
      "outputs": [
        {
          "components": [
            {
              "internalType": "address",
              "name": "submitter",
              "type": "address"
            },
            {
              "internalType": "string",
              "name": "lofiUrl",
              "type": "string"
            },
            {
              "internalType": "uint256",
              "name": "upvoteCount",
              "type": "uint256"
            },
            {
              "internalType": "uint256",
              "name": "timestamp",
              "type": "uint256"
            }
          ],
          "internalType": "struct Lofi.LofiItem[]",
          "name": "",
          "type": "tuple[]"
        }
      ],
      "stateMutability": "view",
      "type": "function"
    },
    {
      "inputs": [
        {
          "internalType": "string",
          "name": "_lofiUrl",
          "type": "string"
        }
      ],
      "name": "newLofi",
      "outputs": [],
      "stateMutability": "nonpayable",
      "type": "function"
    },
    {
      "inputs": [
        {
          "internalType": "uint256",
          "name": "_index",
          "type": "uint256"
        }
      ],
      "name": "tip",
      "outputs": [],
      "stateMutability": "nonpayable",
      "type": "function"
    },
    {
      "inputs": [
        {
          "internalType": "uint256",
          "name": "_index",
          "type": "uint256"
        }
      ],
      "name": "upvote",
      "outputs": [],
      "stateMutability": "nonpayable",
      "type": "function"
    }
  ],
  "bytecode": "0x60806040523480156200001157600080fd5b506200005d6040518060400160405280600481526020017f68616c6f000000000000000000000000000000000000000000000000000000008152506200006360201b620005751760201c565b620001f7565b62000103816040516024016200007a9190620001d3565b6040516020818303038152906040527f41304fac000000000000000000000000000000000000000000000000000000007bffffffffffffffffffffffffffffffffffffffffffffffffffffffff19166020820180517bffffffffffffffffffffffffffffffffffffffffffffffffffffffff83818316178352505050506200010660201b60201c565b50565b60008151905060006a636f6e736f6c652e6c6f679050602083016000808483855afa5050505050565b600081519050919050565b600082825260208201905092915050565b60005b838110156200016b5780820151818401526020810190506200014e565b838111156200017b576000848401525b50505050565b6000601f19601f8301169050919050565b60006200019f826200012f565b620001ab81856200013a565b9350620001bd8185602086016200014b565b620001c88162000181565b840191505092915050565b60006020820190508181036000830152620001ef818462000192565b905092915050565b610d9a80620002076000396000f3fe608060405234801561001057600080fd5b506004361061004c5760003560e01c806301ddf07014610051578063b91910241461006d578063c0cd46b514610089578063e8b69bc3146100a7575b600080fd5b61006b60048036038101906100669190610724565b6100c3565b005b61008760048036038101906100829190610897565b610101565b005b610091610231565b60405161009e9190610add565b60405180910390f35b6100c160048036038101906100bc9190610724565b61038c565b005b600081815481106100d7576100d6610aff565b5b906000526020600020906004020160020160008154809291906100f990610b5d565b919050555050565b600060405180608001604052803373ffffffffffffffffffffffffffffffffffffffff1681526020018381526020016000815260200142815250908060018154018082558091505060019003906000526020600020906004020160009091909190915060008201518160000160006101000a81548173ffffffffffffffffffffffffffffffffffffffff021916908373ffffffffffffffffffffffffffffffffffffffff16021790555060208201518160010190805190602001906101c7929190610637565b50604082015181600201556060820151816003015550503373ffffffffffffffffffffffffffffffffffffffff167fc1c50202b472d38256a1022a255d8ae63d0e761c48eb2cb979dc2e74e129d3584283604051610226929190610bff565b60405180910390a250565b60606000805480602002602001604051908101604052809291908181526020016000905b8282101561038357838290600052602060002090600402016040518060800160405290816000820160009054906101000a900473ffffffffffffffffffffffffffffffffffffffff1673ffffffffffffffffffffffffffffffffffffffff1673ffffffffffffffffffffffffffffffffffffffff1681526020016001820180546102de90610c5e565b80601f016020809104026020016040519081016040528092919081815260200182805461030a90610c5e565b80156103575780601f1061032c57610100808354040283529160200191610357565b820191906000526020600020905b81548152906001019060200180831161033a57829003601f168201915b505050505081526020016002820154815260200160038201548152505081526020019060010190610255565b50505050905090565b60008082815481106103a1576103a0610aff565b5b90600052602060002090600402016040518060800160405290816000820160009054906101000a900473ffffffffffffffffffffffffffffffffffffffff1673ffffffffffffffffffffffffffffffffffffffff1673ffffffffffffffffffffffffffffffffffffffff16815260200160018201805461042090610c5e565b80601f016020809104026020016040519081016040528092919081815260200182805461044c90610c5e565b80156104995780601f1061046e57610100808354040283529160200191610499565b820191906000526020600020905b81548152906001019060200180831161047c57829003601f168201915b505050505081526020016002820154815260200160038201548152505090506000816000015173ffffffffffffffffffffffffffffffffffffffff1667016345785d8a00006040516104ea90610cc1565b60006040518083038185875af1925050503d8060008114610527576040519150601f19603f3d011682016040523d82523d6000602084013e61052c565b606091505b5050905080610570576040517f08c379a000000000000000000000000000000000000000000000000000000000815260040161056790610d22565b60405180910390fd5b505050565b61060b816040516024016105899190610d42565b6040516020818303038152906040527f41304fac000000000000000000000000000000000000000000000000000000007bffffffffffffffffffffffffffffffffffffffffffffffffffffffff19166020820180517bffffffffffffffffffffffffffffffffffffffffffffffffffffffff838183161783525050505061060e565b50565b60008151905060006a636f6e736f6c652e6c6f679050602083016000808483855afa5050505050565b82805461064390610c5e565b90600052602060002090601f01602090048101928261066557600085556106ac565b82601f1061067e57805160ff19168380011785556106ac565b828001600101855582156106ac579182015b828111156106ab578251825591602001919060010190610690565b5b5090506106b991906106bd565b5090565b5b808211156106d65760008160009055506001016106be565b5090565b6000604051905090565b600080fd5b600080fd5b6000819050919050565b610701816106ee565b811461070c57600080fd5b50565b60008135905061071e816106f8565b92915050565b60006020828403121561073a576107396106e4565b5b60006107488482850161070f565b91505092915050565b600080fd5b600080fd5b6000601f19601f8301169050919050565b7f4e487b7100000000000000000000000000000000000000000000000000000000600052604160045260246000fd5b6107a48261075b565b810181811067ffffffffffffffff821117156107c3576107c261076c565b5b80604052505050565b60006107d66106da565b90506107e2828261079b565b919050565b600067ffffffffffffffff8211156108025761080161076c565b5b61080b8261075b565b9050602081019050919050565b82818337600083830152505050565b600061083a610835846107e7565b6107cc565b90508281526020810184848401111561085657610855610756565b5b610861848285610818565b509392505050565b600082601f83011261087e5761087d610751565b5b813561088e848260208601610827565b91505092915050565b6000602082840312156108ad576108ac6106e4565b5b600082013567ffffffffffffffff8111156108cb576108ca6106e9565b5b6108d784828501610869565b91505092915050565b600081519050919050565b600082825260208201905092915050565b6000819050602082019050919050565b600073ffffffffffffffffffffffffffffffffffffffff82169050919050565b60006109378261090c565b9050919050565b6109478161092c565b82525050565b600081519050919050565b600082825260208201905092915050565b60005b8381101561098757808201518184015260208101905061096c565b83811115610996576000848401525b50505050565b60006109a78261094d565b6109b18185610958565b93506109c1818560208601610969565b6109ca8161075b565b840191505092915050565b6109de816106ee565b82525050565b60006080830160008301516109fc600086018261093e565b5060208301518482036020860152610a14828261099c565b9150506040830151610a2960408601826109d5565b506060830151610a3c60608601826109d5565b508091505092915050565b6000610a5383836109e4565b905092915050565b6000602082019050919050565b6000610a73826108e0565b610a7d81856108eb565b935083602082028501610a8f856108fc565b8060005b85811015610acb5784840389528151610aac8582610a47565b9450610ab783610a5b565b925060208a01995050600181019050610a93565b50829750879550505050505092915050565b60006020820190508181036000830152610af78184610a68565b905092915050565b7f4e487b7100000000000000000000000000000000000000000000000000000000600052603260045260246000fd5b7f4e487b7100000000000000000000000000000000000000000000000000000000600052601160045260246000fd5b6000610b68826106ee565b91507fffffffffffffffffffffffffffffffffffffffffffffffffffffffffffffffff821415610b9b57610b9a610b2e565b5b600182019050919050565b610baf816106ee565b82525050565b600082825260208201905092915050565b6000610bd18261094d565b610bdb8185610bb5565b9350610beb818560208601610969565b610bf48161075b565b840191505092915050565b6000604082019050610c146000830185610ba6565b8181036020830152610c268184610bc6565b90509392505050565b7f4e487b7100000000000000000000000000000000000000000000000000000000600052602260045260246000fd5b60006002820490506001821680610c7657607f821691505b60208210811415610c8a57610c89610c2f565b5b50919050565b600081905092915050565b50565b6000610cab600083610c90565b9150610cb682610c9b565b600082019050919050565b6000610ccc82610c9e565b9150819050919050565b7f4661696c656420746f2073656e64207469700000000000000000000000000000600082015250565b6000610d0c601283610bb5565b9150610d1782610cd6565b602082019050919050565b60006020820190508181036000830152610d3b81610cff565b9050919050565b60006020820190508181036000830152610d5c8184610bc6565b90509291505056fea2646970667358221220f67f54bfbe973c4517f5f22a8cf63ac3e989a4eb9b7d2a37fab5d6ab503146df64736f6c63430008090033",
  "linkReferences": {},
  "deployedLinkReferences": {}
}