{
  "_format": "hh-sol-artifact-1",
  "contractName": "Lofi",
  "sourceName": "contracts/Lofi.sol",
  "abi": [
    {
      "inputs": [],
      "stateMutability": "nonpayable",
      "type": "constructor"
    },
    {
      "anonymous": false,
      "inputs": [
        {
          "indexed": true,
          "internalType": "address",
          "name": "from",
          "type": "address"
        },
        {
          "indexed": false,
          "internalType": "uint256",
          "name": "timestamp",
          "type": "uint256"
        },
        {
          "indexed": false,
          "internalType": "string",
          "name": "message",
          "type": "string"
        }
      ],
      "name": "NewLofi",
      "type": "event"
    },
    {
      "inputs": [],
      "name": "getAllLofis",
      "outputs": [
        {
          "components": [
            {
              "internalType": "address",
              "name": "submitter",
              "type": "address"
            },
            {
              "internalType": "string",
              "name": "lofiUrl",
              "type": "string"
            },
            {
              "internalType": "uint256",
              "name": "upvoteCount",
              "type": "uint256"
            },
            {
              "internalType": "uint256",
              "name": "timestamp",
              "type": "uint256"
            }
          ],
          "internalType": "struct Lofi.LofiItem[]",
          "name": "",
          "type": "tuple[]"
        }
      ],
      "stateMutability": "view",
      "type": "function"
    },
    {
      "inputs": [
        {
          "internalType": "string",
          "name": "_lofiUrl",
          "type": "string"
        }
      ],
      "name": "newLofi",
      "outputs": [],
      "stateMutability": "nonpayable",
      "type": "function"
    },
    {
      "inputs": [
        {
          "internalType": "uint256",
          "name": "_index",
          "type": "uint256"
        }
      ],
      "name": "tip",
      "outputs": [],
      "stateMutability": "nonpayable",
      "type": "function"
    },
    {
      "inputs": [
        {
          "internalType": "uint256",
          "name": "_index",
          "type": "uint256"
        }
      ],
      "name": "upvote",
      "outputs": [],
      "stateMutability": "nonpayable",
      "type": "function"
    }
  ],
  "bytecode": "0x60806040523480156200001157600080fd5b506200005d6040518060400160405280600481526020017f68616c6f000000000000000000000000000000000000000000000000000000008152506200006360201b6200056e1760201c565b620001f7565b62000103816040516024016200007a9190620001d3565b6040516020818303038152906040527f41304fac000000000000000000000000000000000000000000000000000000007bffffffffffffffffffffffffffffffffffffffffffffffffffffffff19166020820180517bffffffffffffffffffffffffffffffffffffffffffffffffffffffff83818316178352505050506200010660201b60201c565b50565b60008151905060006a636f6e736f6c652e6c6f679050602083016000808483855afa5050505050565b600081519050919050565b600082825260208201905092915050565b60005b838110156200016b5780820151818401526020810190506200014e565b838111156200017b576000848401525b50505050565b6000601f19601f8301169050919050565b60006200019f826200012f565b620001ab81856200013a565b9350620001bd8185602086016200014b565b620001c88162000181565b840191505092915050565b60006020820190508181036000830152620001ef818462000192565b905092915050565b610d9380620002076000396000f3fe608060405234801561001057600080fd5b506004361061004c5760003560e01c806301ddf07014610051578063b91910241461006d578063c0cd46b514610089578063e8b69bc3146100a7575b600080fd5b61006b6004803603810190610066919061071d565b6100c3565b005b61008760048036038101906100829190610890565b610101565b005b610091610231565b60405161009e9190610ad6565b60405180910390f35b6100c160048036038101906100bc919061071d565b61038c565b005b600081815481106100d7576100d6610af8565b5b906000526020600020906004020160020160008154809291906100f990610b56565b919050555050565b600060405180608001604052803373ffffffffffffffffffffffffffffffffffffffff1681526020018381526020016000815260200142815250908060018154018082558091505060019003906000526020600020906004020160009091909190915060008201518160000160006101000a81548173ffffffffffffffffffffffffffffffffffffffff021916908373ffffffffffffffffffffffffffffffffffffffff16021790555060208201518160010190805190602001906101c7929190610630565b50604082015181600201556060820151816003015550503373ffffffffffffffffffffffffffffffffffffffff167fc1c50202b472d38256a1022a255d8ae63d0e761c48eb2cb979dc2e74e129d3584283604051610226929190610bf8565b60405180910390a250565b60606000805480602002602001604051908101604052809291908181526020016000905b8282101561038357838290600052602060002090600402016040518060800160405290816000820160009054906101000a900473ffffffffffffffffffffffffffffffffffffffff1673ffffffffffffffffffffffffffffffffffffffff1673ffffffffffffffffffffffffffffffffffffffff1681526020016001820180546102de90610c57565b80601f016020809104026020016040519081016040528092919081815260200182805461030a90610c57565b80156103575780601f1061032c57610100808354040283529160200191610357565b820191906000526020600020905b81548152906001019060200180831161033a57829003601f168201915b505050505081526020016002820154815260200160038201548152505081526020019060010190610255565b50505050905090565b60008082815481106103a1576103a0610af8565b5b90600052602060002090600402016040518060800160405290816000820160009054906101000a900473ffffffffffffffffffffffffffffffffffffffff1673ffffffffffffffffffffffffffffffffffffffff1673ffffffffffffffffffffffffffffffffffffffff16815260200160018201805461042090610c57565b80601f016020809104026020016040519081016040528092919081815260200182805461044c90610c57565b80156104995780601f1061046e57610100808354040283529160200191610499565b820191906000526020600020905b81548152906001019060200180831161047c57829003601f168201915b505050505081526020016002820154815260200160038201548152505090506000816000015173ffffffffffffffffffffffffffffffffffffffff16607b6040516104e390610cba565b60006040518083038185875af1925050503d8060008114610520576040519150601f19603f3d011682016040523d82523d6000602084013e610525565b606091505b5050905080610569576040517f08c379a000000000000000000000000000000000000000000000000000000000815260040161056090610d1b565b60405180910390fd5b505050565b610604816040516024016105829190610d3b565b6040516020818303038152906040527f41304fac000000000000000000000000000000000000000000000000000000007bffffffffffffffffffffffffffffffffffffffffffffffffffffffff19166020820180517bffffffffffffffffffffffffffffffffffffffffffffffffffffffff8381831617835250505050610607565b50565b60008151905060006a636f6e736f6c652e6c6f679050602083016000808483855afa5050505050565b82805461063c90610c57565b90600052602060002090601f01602090048101928261065e57600085556106a5565b82601f1061067757805160ff19168380011785556106a5565b828001600101855582156106a5579182015b828111156106a4578251825591602001919060010190610689565b5b5090506106b291906106b6565b5090565b5b808211156106cf5760008160009055506001016106b7565b5090565b6000604051905090565b600080fd5b600080fd5b6000819050919050565b6106fa816106e7565b811461070557600080fd5b50565b600081359050610717816106f1565b92915050565b600060208284031215610733576107326106dd565b5b600061074184828501610708565b91505092915050565b600080fd5b600080fd5b6000601f19601f8301169050919050565b7f4e487b7100000000000000000000000000000000000000000000000000000000600052604160045260246000fd5b61079d82610754565b810181811067ffffffffffffffff821117156107bc576107bb610765565b5b80604052505050565b60006107cf6106d3565b90506107db8282610794565b919050565b600067ffffffffffffffff8211156107fb576107fa610765565b5b61080482610754565b9050602081019050919050565b82818337600083830152505050565b600061083361082e846107e0565b6107c5565b90508281526020810184848401111561084f5761084e61074f565b5b61085a848285610811565b509392505050565b600082601f8301126108775761087661074a565b5b8135610887848260208601610820565b91505092915050565b6000602082840312156108a6576108a56106dd565b5b600082013567ffffffffffffffff8111156108c4576108c36106e2565b5b6108d084828501610862565b91505092915050565b600081519050919050565b600082825260208201905092915050565b6000819050602082019050919050565b600073ffffffffffffffffffffffffffffffffffffffff82169050919050565b600061093082610905565b9050919050565b61094081610925565b82525050565b600081519050919050565b600082825260208201905092915050565b60005b83811015610980578082015181840152602081019050610965565b8381111561098f576000848401525b50505050565b60006109a082610946565b6109aa8185610951565b93506109ba818560208601610962565b6109c381610754565b840191505092915050565b6109d7816106e7565b82525050565b60006080830160008301516109f56000860182610937565b5060208301518482036020860152610a0d8282610995565b9150506040830151610a2260408601826109ce565b506060830151610a3560608601826109ce565b508091505092915050565b6000610a4c83836109dd565b905092915050565b6000602082019050919050565b6000610a6c826108d9565b610a7681856108e4565b935083602082028501610a88856108f5565b8060005b85811015610ac45784840389528151610aa58582610a40565b9450610ab083610a54565b925060208a01995050600181019050610a8c565b50829750879550505050505092915050565b60006020820190508181036000830152610af08184610a61565b905092915050565b7f4e487b7100000000000000000000000000000000000000000000000000000000600052603260045260246000fd5b7f4e487b7100000000000000000000000000000000000000000000000000000000600052601160045260246000fd5b6000610b61826106e7565b91507fffffffffffffffffffffffffffffffffffffffffffffffffffffffffffffffff821415610b9457610b93610b27565b5b600182019050919050565b610ba8816106e7565b82525050565b600082825260208201905092915050565b6000610bca82610946565b610bd48185610bae565b9350610be4818560208601610962565b610bed81610754565b840191505092915050565b6000604082019050610c0d6000830185610b9f565b8181036020830152610c1f8184610bbf565b90509392505050565b7f4e487b7100000000000000000000000000000000000000000000000000000000600052602260045260246000fd5b60006002820490506001821680610c6f57607f821691505b60208210811415610c8357610c82610c28565b5b50919050565b600081905092915050565b50565b6000610ca4600083610c89565b9150610caf82610c94565b600082019050919050565b6000610cc582610c97565b9150819050919050565b7f4661696c656420746f2073656e64207469700000000000000000000000000000600082015250565b6000610d05601283610bae565b9150610d1082610ccf565b602082019050919050565b60006020820190508181036000830152610d3481610cf8565b9050919050565b60006020820190508181036000830152610d558184610bbf565b90509291505056fea26469706673582212204e3dd9ddc5131632cdfca7ba0a454e4bc65d6da06ba07751931905bbf9b1cc2864736f6c63430008090033",
  "linkReferences": {},
  "deployedLinkReferences": {}
}